{
    "contractName": "Refinery",
    "abi": [
        {
            "inputs": [
                {
                    "internalType": "address",
                    "name": "_operator",
                    "type": "address"
                }
            ],
            "stateMutability": "nonpayable",
            "type": "constructor"
        },
        {
            "anonymous": false,
            "inputs": [
                {
                    "indexed": false,
                    "internalType": "address",
                    "name": "",
                    "type": "address"
                }
            ],
            "name": "ChangeOperator",
            "type": "event"
        },
        {
            "anonymous": false,
            "inputs": [
                {
                    "indexed": false,
                    "internalType": "bool",
                    "name": "",
                    "type": "bool"
                }
            ],
            "name": "SetPaused",
            "type": "event"
        },
        {
            "inputs": [],
            "name": "claimOperator",
            "outputs": [],
            "stateMutability": "nonpayable",
            "type": "function"
        },
        {
            "inputs": [
                {
                    "internalType": "address",
                    "name": "_name",
                    "type": "address"
                }
            ],
            "name": "getOreMaterialsAndPercentages",
            "outputs": [
                {
                    "internalType": "address[]",
                    "name": "",
                    "type": "address[]"
                },
                {
                    "internalType": "uint256[]",
                    "name": "",
                    "type": "uint256[]"
                }
            ],
            "stateMutability": "view",
            "type": "function"
        },
        {
            "inputs": [
                {
                    "internalType": "address",
                    "name": "_ore",
                    "type": "address"
                },
                {
                    "internalType": "address",
                    "name": "_materialName",
                    "type": "address"
                }
            ],
            "name": "getPairAddress",
            "outputs": [
                {
                    "internalType": "address",
                    "name": "",
                    "type": "address"
                }
            ],
            "stateMutability": "view",
            "type": "function"
        },
        {
            "inputs": [],
            "name": "operator",
            "outputs": [
                {
                    "internalType": "address",
                    "name": "",
                    "type": "address"
                }
            ],
            "stateMutability": "view",
            "type": "function"
        },
        {
            "inputs": [
                {
                    "internalType": "address",
                    "name": "",
                    "type": "address"
                },
                {
                    "internalType": "address",
                    "name": "",
                    "type": "address"
                }
            ],
            "name": "oreMaterialPairAddress",
            "outputs": [
                {
                    "internalType": "address",
                    "name": "",
                    "type": "address"
                }
            ],
            "stateMutability": "view",
            "type": "function"
        },
        {
            "inputs": [],
            "name": "paused",
            "outputs": [
                {
                    "internalType": "bool",
                    "name": "",
                    "type": "bool"
                }
            ],
            "stateMutability": "view",
            "type": "function"
        },
        {
            "inputs": [],
            "name": "pendingOperator",
            "outputs": [
                {
                    "internalType": "address",
                    "name": "",
                    "type": "address"
                }
            ],
            "stateMutability": "view",
            "type": "function"
        },
        {
            "inputs": [
                {
                    "internalType": "uint256",
                    "name": "_oreAmount",
                    "type": "uint256"
                },
                {
                    "internalType": "address",
                    "name": "_ore",
                    "type": "address"
                },
                {
                    "internalType": "uint256[]",
                    "name": "_minY",
                    "type": "uint256[]"
                }
            ],
            "name": "refineOre",
            "outputs": [],
            "stateMutability": "nonpayable",
            "type": "function"
        },
        {
            "inputs": [
                {
                    "internalType": "address",
                    "name": "_ore",
                    "type": "address"
                },
                {
                    "internalType": "address[]",
                    "name": "_materials",
                    "type": "address[]"
                },
                {
                    "internalType": "uint256[]",
                    "name": "_percentages",
                    "type": "uint256[]"
                }
            ],
            "name": "setOre",
            "outputs": [],
            "stateMutability": "nonpayable",
            "type": "function"
        },
        {
            "inputs": [
                {
                    "internalType": "address",
                    "name": "_addr",
                    "type": "address"
                },
                {
                    "internalType": "address",
                    "name": "_ore",
                    "type": "address"
                },
                {
                    "internalType": "address",
                    "name": "_material",
                    "type": "address"
                }
            ],
            "name": "setPair",
            "outputs": [],
            "stateMutability": "nonpayable",
            "type": "function"
        },
        {
            "inputs": [
                {
                    "internalType": "bool",
                    "name": "_isPaused",
                    "type": "bool"
                }
            ],
            "name": "setPaused",
            "outputs": [],
            "stateMutability": "nonpayable",
            "type": "function"
        },
        {
            "inputs": [
                {
                    "internalType": "address",
                    "name": "newOperator_",
                    "type": "address"
                }
            ],
            "name": "setPendingOperator",
            "outputs": [],
            "stateMutability": "nonpayable",
            "type": "function"
        }
    ],
    "bytecode": "608060405234801561001057600080fd5b50604051610dd3380380610dd383398101604081905261002f91610054565b600080546001600160a01b0319166001600160a01b0392909216919091179055610084565b60006020828403121561006657600080fd5b81516001600160a01b038116811461007d57600080fd5b9392505050565b610d40806100936000396000f3fe608060405234801561001057600080fd5b50600436106100b45760003560e01c80637bb41012116100715780637bb410121461017c5780639a4bade31461018f578063ab210042146101b0578063ac7e534e146101c3578063b4f69a2f146101d6578063d54e65fb1461020e57600080fd5b8063143d4e49146100b957806316c38b3c146100ce5780634d8d0f09146100e1578063570ca735146100f45780635c975abb14610124578063641c623414610148575b600080fd5b6100cc6100c7366004610967565b610216565b005b6100cc6100dc36600461099a565b61026b565b6100cc6100ef366004610a03565b6102ed565b600054610107906001600160a01b031681565b6040516001600160a01b0390911681526020015b60405180910390f35b60015461013890600160a01b900460ff1681565b604051901515815260200161011b565b610107610156366004610a5d565b60036020908152600092835260408084209091529082529020546001600160a01b031681565b6100cc61018a366004610a90565b610632565b6101a261019d366004610967565b610698565b60405161011b929190610ad3565b6100cc6101be366004610b57565b61076c565b600154610107906001600160a01b031681565b6101076101e4366004610a5d565b6001600160a01b039182166000908152600360209081526040808320938516835292905220541690565b6100cc6107e8565b6000546001600160a01b031633146102495760405162461bcd60e51b815260040161024090610bd8565b60405180910390fd5b600180546001600160a01b0319166001600160a01b0392909216919091179055565b6000546001600160a01b031633146102955760405162461bcd60e51b815260040161024090610bd8565b60018054821515600160a01b0260ff60a01b199091161790556040517f3c70af01296aef045b2f5c9d3c30b05d4428fd257145b9c7fcd76418e65b5980906102e290831515815260200190565b60405180910390a150565b600154600160a01b900460ff161561033d5760405162461bcd60e51b8152602060048201526013602482015272436f6e7472616374206973207061757365642160681b6044820152606401610240565b6001600160a01b0383166103875760405162461bcd60e51b815260206004820152601160248201527013dc9948191bd95cdb89dd08195e1a5cdd607a1b6044820152606401610240565b6040516323b872dd60e01b8152336004820152306024820152604481018590526000906001600160a01b038516906323b872dd906064016020604051808303816000875af11580156103dd573d6000803e3d6000fd5b505050506040513d601f19601f820116820180604052508101906104019190610c1d565b5060005b6001600160a01b0385166000908152600260205260409020548110156105d0576001600160a01b03851660009081526002602052604081205461044a90600190610c50565b8214156104625761045b8388610c50565b90506104b6565b6001600160a01b03861660009081526002602052604090206001018054606491908490811061049357610493610c67565b9060005260206000200154886104a99190610c7d565b6104b39190610c9c565b90505b6001600160a01b03861660009081526002602052604090208054610518918891859081106104e6576104e6610c67565b60009182526020808320909101546001600160a01b039384168352600382526040808420918516845291529020541690565b6001600160a01b0316636d9a640a8287878681811061053957610539610c67565b6040516001600160e01b031960e087901b168152600481019490945260200291909101356024830152503360448201526064016020604051808303816000875af115801561058b573d6000803e3d6000fd5b505050506040513d601f19601f820116820180604052508101906105af9190610cbe565b506105ba8184610cd7565b92505080806105c890610cef565b915050610405565b50604051630852cd8d60e31b8152600481018690526001600160a01b038516906342966c6890602401600060405180830381600087803b15801561061357600080fd5b505af1158015610627573d6000803e3d6000fd5b505050505050505050565b6000546001600160a01b0316331461065c5760405162461bcd60e51b815260040161024090610bd8565b6001600160a01b0391821660009081526003602090815260408083209385168352929052208054919092166001600160a01b0319909116179055565b6001600160a01b038116600090815260026020908152604091829020805483518184028101840190945280845260609384936001840192849183018282801561070a57602002820191906000526020600020905b81546001600160a01b031681526001909101906020018083116106ec575b505050505091508080548060200260200160405190810160405280929190818152602001828054801561075c57602002820191906000526020600020905b815481526020019060010190808311610748575b5050505050905091509150915091565b6000546001600160a01b031633146107965760405162461bcd60e51b815260040161024090610bd8565b6001600160a01b03851660009081526002602052604090206107b9908585610898565b506001600160a01b03851660009081526002602052604090206107e09060010183836108fb565b505050505050565b6001546001600160a01b0316331461083a5760405162461bcd60e51b815260206004820152601560248201527427a7262c902822a72224a7239027a822a920aa27a960591b6044820152606401610240565b60018054600080546001600160a01b0383166001600160a01b031991821681179092559091169091556040519081527f8eb831fe42156caaf4721a87ad40c6e662b893dbeee76d7a3ed2564a318b091c9060200160405180910390a1565b8280548282559060005260206000209081019282156108eb579160200282015b828111156108eb5781546001600160a01b0319166001600160a01b038435161782556020909201916001909101906108b8565b506108f7929150610936565b5090565b8280548282559060005260206000209081019282156108eb579160200282015b828111156108eb57823582559160200191906001019061091b565b5b808211156108f75760008155600101610937565b80356001600160a01b038116811461096257600080fd5b919050565b60006020828403121561097957600080fd5b6109828261094b565b9392505050565b801515811461099757600080fd5b50565b6000602082840312156109ac57600080fd5b813561098281610989565b60008083601f8401126109c957600080fd5b50813567ffffffffffffffff8111156109e157600080fd5b6020830191508360208260051b85010111156109fc57600080fd5b9250929050565b60008060008060608587031215610a1957600080fd5b84359350610a296020860161094b565b9250604085013567ffffffffffffffff811115610a4557600080fd5b610a51878288016109b7565b95989497509550505050565b60008060408385031215610a7057600080fd5b610a798361094b565b9150610a876020840161094b565b90509250929050565b600080600060608486031215610aa557600080fd5b610aae8461094b565b9250610abc6020850161094b565b9150610aca6040850161094b565b90509250925092565b604080825283519082018190526000906020906060840190828701845b82811015610b155781516001600160a01b031684529284019290840190600101610af0565b5050508381038285015284518082528583019183019060005b81811015610b4a57835183529284019291840191600101610b2e565b5090979650505050505050565b600080600080600060608688031215610b6f57600080fd5b610b788661094b565b9450602086013567ffffffffffffffff80821115610b9557600080fd5b610ba189838a016109b7565b90965094506040880135915080821115610bba57600080fd5b50610bc7888289016109b7565b969995985093965092949392505050565b60208082526025908201527f4f6e6c79206f70657261746f722063616e2063616c6c20746869732066756e6360408201526474696f6e2160d81b606082015260800190565b600060208284031215610c2f57600080fd5b815161098281610989565b634e487b7160e01b600052601160045260246000fd5b600082821015610c6257610c62610c3a565b500390565b634e487b7160e01b600052603260045260246000fd5b6000816000190483118215151615610c9757610c97610c3a565b500290565b600082610cb957634e487b7160e01b600052601260045260246000fd5b500490565b600060208284031215610cd057600080fd5b5051919050565b60008219821115610cea57610cea610c3a565b500190565b6000600019821415610d0357610d03610c3a565b506001019056fea2646970667358221220129f96aca7cc6b093c072a5fbe4c09a57e2acaec679bc8b9fa01bff46e46f5e264736f6c634300080a0033",
    "sourcePath": "/Users/elrakabawi/Desktop/station0x games/encounter/contracts/src/refinery/Refinery.sol",
    "compiler": {
        "name": "solc",
        "version": "0.8.10+commit.fc410830"
    },
    "functionHashes": {
        "claimOperator()": "d54e65fb",
        "getOreMaterialsAndPercentages(address)": "9a4bade3",
        "getPairAddress(address,address)": "b4f69a2f",
        "operator()": "570ca735",
        "oreMaterialPairAddress(address,address)": "641c6234",
        "paused()": "5c975abb",
        "pendingOperator()": "ac7e534e",
        "refineOre(uint256,address,uint256[])": "4d8d0f09",
        "setOre(address,address[],uint256[])": "ab210042",
        "setPair(address,address,address)": "7bb41012",
        "setPaused(bool)": "16c38b3c",
        "setPendingOperator(address)": "143d4e49"
    },
    "gasEstimates": {
        "creation": {
            "codeDepositCost": "678400",
            "executionCost": "infinite",
            "totalCost": "infinite"
        },
        "external": {
            "claimOperator()": "51938",
            "getOreMaterialsAndPercentages(address)": "infinite",
            "getPairAddress(address,address)": "infinite",
            "operator()": "2393",
            "oreMaterialPairAddress(address,address)": "infinite",
            "paused()": "2416",
            "pendingOperator()": "2392",
            "refineOre(uint256,address,uint256[])": "infinite",
            "setOre(address,address[],uint256[])": "infinite",
            "setPair(address,address,address)": "infinite",
            "setPaused(bool)": "27786",
            "setPendingOperator(address)": "26712"
        }
    }
}